:1000000015C1000044C1000042C1000040C1000011
:100010003EC100003CC100003AC1000038C10000F0
:1000200036C1000034C1000032C1000030C1000000
:100030002EC100000C94490C2AC1000028C1000008
:1000400026C1000024C1000022C1000020C1000020
:100050001EC100007CC600001AC100000C945B0D9C
:1000600016C100000C94BC0B0C94930B10C1000043
:100070000EC100000CC100000AC1000008C1000050
:1000800006C1000004C1000002C1000000C1000060
:10009000FEC00000FCC00000FAC00000F8C0000074
:1000A000F6C00000F4C00000F2C00000F0C0000084
:1000B000EEC00000ECC00000EAC00000E8C0000094
:1000C000E6C00000E4C00000E2C00000E0C00000A4
:1000D000DEC00000DCC00000DAC00000D8C00000B4
:1000E000D6C00000030B060BF50AF90AFF0A3D0B08
:1000F0000A0B0E0B140B180B1C0B220B260B2A0BD6
:100100003D0B300B340B380B00002100240027007E
:100110002A002D0030003300010100000401070116
:100120000A0100002200250028002B002E003100CB
:10013000340002010000050108010B01000020004D
:100140002300260029002C002F00320000010000AF
:10015000030106010901050505050705080808084A
:10016000020202020A0A080804040404010101014F
:10017000010101010303030303030303040707074A
:100180000C0C0C0C0C0C0C0C0202020206060606EF
:10019000060606060B0B0B0B0B0B0B0B01021020BC
:1001A00020080810204010204080020102010804AD
:1001B0000201010204081020408080402010080441
:1001C000020180040201804020100804020108049A
:1001D00002010102040810204080010204081020DE
:1001E000408000000A0B02090C0D0E0807030401F1
:1001F00000000000000000000000000000000000FF
:1002000000000000000000000000000000001211CB
:1002100010000000000000000000000000000000CE
:1002200000000000000000000200DF1211241FBEC9
:10023000CFEFD1E2DEBFCDBF00E00CBF12E0A0E007
:10024000B2E0ECEFFBE200E00BBF02C007900D92C2
:10025000AE37B107D9F723E0AEE7B2E001C01D9297
:10026000A73BB207E1F711E0C6E1D1E000E006C02C
:1002700021970109802FFE010E94CC15C531D107BD
:1002800080E00807A9F70E940C130C94FC15B8CE67
:10029000CF93C82F60E00E941A0C61E08C2F0E945F
:1002A0001A0C6CE370E080E090E00E94230D60E0A7
:1002B0008C2F0E941A0C809100028E3221F08F3F09
:1002C00009F0A4C104C0E8E2F2E0C491E8C08EE203
:1002D00080930002E8E2F2E0E491EF3F09F496C176
:1002E000E23009F472C04CF5EE2309F451C0E1305C
:1002F00009F0D4C01092800010928100809181009A
:10030000886080938100809181008160809381006A
:10031000E4E8F1E0E491F0E0EE0FFF1FEE5DFE4F48
:100320008591949190938D0280938C02EAECF1E098
:10033000E491E0938B02C1E0B4C0E43009F48BC0D7
:100340000CF466C0E53009F0A9C0109220011092AB
:1003500021018091210188608093210180912101F8
:10036000816080932101E4E8F1E0E491F0E0EE0F98
:10037000FF1FEE5DFE4F85919491909384028093D0
:100380008302EAECF1E0E491E0938202C5E089C0E7
:1003900014BC15BC84B5826084BD85B5816085BD03
:1003A000E4E8F1E0E491F0E0EE0FFF1FEE5DFE4FB8
:1003B000859194919093900280938F02EAECF1E002
:1003C000E491E0938E02C0E06CC01092B0001092F5
:1003D000B1008091B00082608093B0008091B10044
:1003E00081608093B100E4E8F1E0E491F0E0EE0F89
:1003F000FF1FEE5DFE4F859194919093A80280932C
:10040000A702EAECF1E0E491E093A902C2E049C05E
:1004100010929000109291008091910088608093DA
:10042000910080919100816080939100E4E8F1E077
:10043000E491F0E0EE0FFF1FEE5DFE4F8591949189
:1004400090938A0280938902EAECF1E0E491E093D0
:100450008802C3E026C01092A0001092A1008091F3
:10046000A10088608093A1008091A10081608093A9
:10047000A100E4E8F1E0E491F0E0EE0FFF1FEE5D93
:10048000FE4F859194919093870280938602EAECC7
:10049000F1E0E491E0938502C4E003C0CE2FC7FDF4
:1004A000B5C061E08EE20E94E70CCC2309F4B5C030
:1004B000C23009F449C0C130F1F480918100887FD5
:1004C00081608093810084ED94E190938900809312
:1004D000880084EB90E0A0E0B0E080939D029093D0
:1004E0009E02A0939F02B093A00280916F00826051
:1004F00080936F008BC0C33039F480919100887F66
:100500008160809391003BC0C43039F48091A10098
:10051000887F81608093A1004AC0C53039F4809102
:100520002101887F81608093210159C0C33039F156
:100530002CF4C23009F06AC084ED0DC0C430B9F1AA
:10054000C53009F44CC062C08091B100887F8360DF
:100550008093B10085EA8093B30084EB90E0A0E043
:10056000B0E08093AA029093AB02A093AC02B09348
:10057000AD028091700082608093700047C084ED6E
:1005800094E1909399008093980084EB90E0A0E030
:10059000B0E08093990290939A02A0939B02B0934B
:1005A0009C02809171008260809371002FC084ED65
:1005B00094E19093A9008093A80084EB90E0A0E0E0
:1005C000B0E08093950290939602A0939702B09327
:1005D00098028091720082608093720017C084ED4F
:1005E00094E1909329018093280184EB90E0A0E0AE
:1005F000B0E08093910290939202A0939302B09303
:100600009402809173008260809373006CE370E0C9
:1006100080E090E0CF910C94230D85B5887F8360B6
:1006200085BD82E587BD84EB90E0A0E0B0E08093DB
:10063000A1029093A202A093A302B093A40280917E
:100640006E00826080936E00E1CFCF93DF9300D085
:100650001F92CDB7DEB703E710E06AE070E080E0FC
:1006600090E00E94230D60E082E00E941A0C88ED69
:1006700092E0D9D61816190624F488ED92E0B1D686
:1006800002C080E090E09A8389831C830B83C0972B
:1006900058F044E650E0BE016F5F7F4F8091B0029A
:1006A0009091B1020E942D0F0E940D0FD6CFCF93D3
:1006B000DF9300D01F92CDB7DEB782E6C82ED12CD3
:1006C0008CE20E94F20B01E0892B09F400E08AE23F
:1006D0000E94F20BFF24F394892B09F4F12C84E29D
:1006E0000E94F20B11E0892B09F410E086E20E94CF
:1006F000F20BEE24E394892B09F4E12C88E20E94AA
:10070000F20B21E0892B09F420E0FF2071F0812F0A
:10071000802B8E2951F4211108C08AE20E94F20B2D
:10072000892BD9F780E390E045C0002371F0812F39
:100730008F298E2951F5211128C08CE20E94F20BDD
:10074000892BD9F781E390E035C0222369F08F2D02
:10075000812BD9F4E11019C088E20E94F20B892B99
:10076000D9F782E390E026C0112379F08F2D8E29EE
:1007700061F484E20E94F20B64E670E080E090E0B5
:100780000E94230D83E390E015C0EE2089F00F292D
:10079000102B71F421110CC086E20E94F20B64E66A
:1007A00070E080E090E00E94230D84E390E002C0BE
:1007B00080E090E09A838983DC82CB82C0976CF0E2
:1007C00044E650E0BE016F5F7F4F8091B002909190
:1007D000B1020E942D0F1A8219820E940D0F70CF54
:1007E00080919F038F5F80939F030895FF920F93E3
:1007F0001F93CF93DF93EC010FB6F8940F928C0107
:100800000F5E1F4FFF24F3949E8D19166CF4898997
:10081000882351F0C8010E94960E8111F092A60221
:100820009E8D91509E8FF0CF8FEF8E8F0F900FBEC9
:100830000FB6F8940F928E01085F1F4FFF24F394B8
:100840009D8D19166CF48885882351F0C8010E948B
:10085000960E8111F092A6029D8D91509D8FF0CF42
:100860008FEF8D8F0F900FBEDF91CF911F910F9162
:10087000FF9008950F920FB6F8940F920BB60F9257
:100880000CB60F921F9211242F923F924F925F92BB
:100890006F927F928F929F92AF92BF92CF92DF9290
:1008A000EF92FF920F931F932F933F934F935F937A
:1008B0006F937F938F939F93AF93BF93CF93DF9368
:1008C000EF93FF93A0919B03B0919C030DB60D9203
:1008D0000EB60D9280919F03882321F081E08093D2
:1008E000A60202C00E94A50DA0919B03B0919C039B
:1008F000CD91CDBFDD91DEBFFF91EF91DF91CF9123
:10090000BF91AF919F918F917F916F915F914F9127
:100910003F912F911F910F91FF90EF90DF90CF901B
:10092000BF90AF909F908F907F906F905F904F900F
:100930003F902F901F900F900CBE0F900BBE0F900A
:100940000FBE0F900895CF93DF93FC01A085B18572
:100950008281938124813581EC013D832C83C48184
:10096000D5819B838A8311968D919C9112978E17C6
:100970009F0721F41296DC93CE931197118610866F
:100980008C9181508C93DF91CF9108950F931F9399
:10099000CF93DF938C01FB01808191818F3F2FEFFB
:1009A000920721F4E801AF81B8850EC0D8011396F3
:1009B00012962D913C911397E90148815981841732
:1009C000950710F0D901F4CF12968D919C91139751
:1009D00093838283EC01FD83EC83B583A483139618
:1009E000FC93EE93129711870087F80180818F5F47
:1009F0008083DF91CF911F910F910895CF93DF9363
:100A00009C01FB01DC011196CD91DC911297D383FF
:100A1000C2838C819D81958384838C819D81DC013F
:100A200013967C936E9312977D836C833187208716
:100A3000F90180818F5F8083DF91CF9108958C01D0
:100A4000F89461E08DE0C3D7C0E0D0E0C017D107D3
:100A5000D4F461E08DE0EED680E899EAA3E0B0E05E
:100A600000000197A109B109D9F760E08DE0E2D655
:100A700080E899EAA3E0B0E000000197A109B1097C
:100A8000D9F72196E3CF40E05AE668E170E0000034
:100A90004150510961097109D1F7D6CF81E090E049
:100AA000CEDFCF93DF93EB01009709F4F7DF2091BE
:100AB0009B0330919C03B901645F7F4F67DF809196
:100AC0009B0390919C0302963EDF80919D03909141
:100AD0009E038C0F9D1FDF91CF910C94260ECF9219
:100AE000DF92EF92FF920F931F93CF93DF9380914A
:100AF0009F038111ADC080919D0390919E0301964B
:100B000090939E0380939D03E0909D03F0909E033D
:100B1000E114F104B1F5E091C202F091C3028081C9
:100B20008111BCDF8091C2029091C3022091C0026A
:100B30003091C1023093C3022093C2029093C1024C
:100B40008093C002809175038F5F80937503E0915D
:100B5000C202F091C3028081811103C08FEF9FEF29
:100B60000CC0E091C202F091C3020580F681E02D35
:100B70000680F781E02D828193819093AF0280936C
:100B8000AE028091AE029091AF02C0E0E816F90685
:100B900008F44CC0D9E0E091C202F091C302808118
:100BA000811103C08FEF9FEF11C0E091C202F0915D
:100BB000C3020580F681E02D06811781D8011296C7
:100BC0008D919C911397E816F90628F49093AF0243
:100BD0008093AE022BC06801B2E0CB0ED11CC601DF
:100BE000B2DEF80184899589892B19F0C8010C9629
:100BF000AADED80156969C9180919A03891710F429
:100C000090939A03D99FC0011124B6018A589C4F32
:100C1000F5DEE0919B03F0919C03D80156969C91E0
:100C20008689981708F4B7CFC1E0B5CFE0919B0350
:100C3000F0919C03E689B9E0EB9FF0011124EA589A
:100C4000FC4F8081823008F0C1E08091A50206C08F
:100C50008091A5028F5F8093A502C0E08091A602DB
:100C60008111C1E08C2FDF91CF911F910F91FF90E7
:100C7000EF90DF90CF9008950F920FB6F8940F92F7
:100C80000BB60F920CB60F921F9211242F923F9227
:100C90004F925F926F927F928F929F92AF92BF928C
:100CA000CF92DF92EF92FF920F931F932F933F9378
:100CB0004F935F936F937F938F939F93AF93BF9364
:100CC000CF93DF93EF93FF93A0919B03B0919C038D
:100CD0000DB60D920EB60D9202DF882349F0809179
:100CE0009F03882321F081E08093A60201C02DD7C5
:100CF000A0919B03B0919C03CD91CDBFDD91DEBF50
:100D0000FF91EF91DF91CF91BF91AF919F918F9123
:100D10007F916F915F914F913F912F911F910F9113
:100D2000FF90EF90DF90CF90BF90AF909F908F900B
:100D30007F906F905F904F903F902F901F900F90FB
:100D40000CBE0F900BBE0F900FBE0F90089594DF56
:100D50001895EF92FF920F931F93CF93DF9380919B
:100D60009F03811101C09ADE0FB6F8940F92809113
:100D70009F03815080939F0380919F03882311F0EC
:100D800080E04EC08091D7028823D1F389E0F82E0D
:100D9000EE24E3948091CD02882339F1E091D202D0
:100DA000F091D302C681D781CE010C96CCDD8E01A5
:100DB0000E5F1F4FC801C7DD9E8980919A03891776
:100DC00010F490939A03F99EC0011124B8018A5837
:100DD0009C4F14DEE0919B03F0919C039E898689D1
:100DE0009817C0F2E092A602D5CF8091A50281119A
:100DF00008C08091A602813009F0C2CF3BDD81E0BE
:100E00000FC0C1E08091A502882399F368DE8111AB
:100E1000C093A6028091A50281508093A502F2CFD3
:100E20000F900FBEDF91CF911F910F91FF90EF9028
:100E30000895CF93DF93009741F0EC01D1DCCE0110
:100E40000E94FF14DF91CF9184CFDF91CF9108955D
:100E50000F931F93CF93DF931F921F92CDB7DEB7EF
:100E600089839A83BDDC89819A810E946A148C01EE
:100E700070DF0115110519F482E090E0E0DDC80192
:100E80000F900F90DF91CF911F910F91089560E027
:100E900080E3D0D480E09FD780E09DD780E09BD7CF
:100EA00061E080E3C7D46AE070E080E090E0CBC509
:100EB000EF92FF920F931F93CF93DF93FC0197FF65
:100EC00007C0DF91CF911F910F91FF90EF90DFCF7F
:100ED0002AE030E0B9010E9497157C01CB01B901ED
:100EE0000E9497158C01CF0164E670E00E9497156F
:100EF000CB01B9010E949715EC01892B11F4CAE0CE
:100F0000D0E060E080E396D4F701EE5DFD4F808194
:100F100062D7F801E95EFD4F80815DD7CE5DDD4F80
:100F2000888159D761E080E385D46AE070E080E091
:100F300090E0DF91CF911F910F91FF90EF9083C5CB
:100F4000CF93DF93CDB7DEB729970FB6F894DEBF06
:100F50000FBECDBFCC24CA94DC2C99E0992E24E09E
:100F6000A22EB12C882483940091B0021091B1027A
:100F7000D986C8860115110509F490DD80E0380195
:100F800091E1690E711C0FB6F8940F92F801928DE1
:100F9000992309F447C0448D4423B9F050E0868179
:100FA0009781840F951F97838683228133818217CF
:100FB000930720F08081918197838683F801668171
:100FC0007781CE0101960E94EC15F801828D815047
:100FD000828F80819181892BA1F480919B039091D4
:100FE0009C03892B39F0E0919B03F0919C0382A133
:100FF0008F5F82A380919B0390919C03F801938360
:101000008283F8018085882331F0C80108968ED646
:10101000813009F42FDC0F900FBE8981823309F0F3
:10102000A2C015C128853985232B19F40F900FBE56
:101030009BCF811109C0809175038D8380919D03A1
:1010400090919E039F838E830F900FBEC9DB0FB6D6
:10105000F8940F92F801858D8F3F09F4158EF801F1
:10106000868D8F3F09F4168E0F900FBEBE01685F0C
:101070007F4FCE01059622D6811171C00FB6F8942C
:101080000F92F801828D0F900FBE811164C0808194
:101090009181892B09F052C00FB6F8940F92E2802B
:1010A000F380E114F10409F447C0F7018689E09167
:1010B0009B03F0919C039689891708F03DC0F701C6
:1010C0002485358537FD0BC0E0919B03F0919C038F
:1010D00096899501291B3109F70135872487989E48
:1010E000C00111248A589C4FF701228533852817A7
:1010F0003907D9F42701F2E04F0E511CC20123DC5D
:10110000E0919B03F0919C038689F701868B909177
:101110009A03981710F480939A03989EC0011124A3
:10112000B2018A589C4F6ADC07C0E0919B03F091A2
:101130009C038689F701868B0F900FBE68857985A1
:10114000C301AFDCC80152DB04DE882311F081E06B
:101150001ACF90DBFCCFC80149DBFBDDF8CFC8011B
:1011600045DBF7DD01CF833334F4803331F1813354
:1011700009F449C0F7C0843309F4C4C00CF494C026
:10118000833609F0EFC080928102109280021092A3
:101190007F0210927E028CE190E07AD878DE8EE1B8
:1011A00090E076D86AE070E080E090E04CD461E0B6
:1011B00082E040D38DE292E0DFC0809180028823FC
:1011C00009F4D2CE1092800280918102882391F09E
:1011D0006AE070E080E090E036D461E082E02AD3FB
:1011E0008CE4C7D76AE070E080E090E02CD460E047
:1011F00082E020D310927F0210927E028CE190E078
:1012000047D845DEB1CE809180028111ADCE80926B
:10121000800280917E0290917F024ADE809181025D
:10122000882391F06AE070E080E090E00CD461E007
:1012300082E000D388E49DD76AE070E080E090E02F
:1012400002D460E082E0F6D28AE190E088C080912A
:101250008002882309F488CE80917E0290917F02DB
:10126000181619060CF080CE10927F0210927E02A2
:1012700080E090E01DDE80918102882391F06AE099
:1012800070E080E090E0DFD361E082E0D3D283E5DC
:1012900070D76AE070E080E090E0D5D360E082E053
:1012A000C9D28EE190E05BC080918002882309F46E
:1012B0005BCE00917E0210917F02003A11050CF086
:1012C00053CE0F5F1F4F10937F0200937E02C80121
:1012D000EFDD80918102882391F06AE070E080E088
:1012E00090E0B1D361E082E0A5D2C801C5D66AE042
:1012F00070E080E090E0A7D360E082E09BD280E2E3
:1013000090E02DC080918002882309F42DCE0091B9
:101310007E0210917F02101611060CF025CE0150AE
:10132000110910937F0200937E02C801C1DD8091F4
:101330008102882391F06AE070E080E090E083D33E
:1013400061E082E077D2C80197D66AE070E080E081
:1013500090E079D360E082E06DD282E290E00E947A
:10136000480102CE6AE070E080E090E06CD361E07A
:1013700082E060D280E392E073D66AE070E080E0C1
:1013800090E061D360E082E055D2EECDCF92DF9263
:10139000EF92FF920F931F93CF93DF936C017A012B
:1013A0008B01C0E0D0E0CE15DF0589F0D8016D914A
:1013B0008D01D601ED91FC910190F081E02DC601E7
:1013C0001995892B11F47E0102C02196ECCFC7013B
:1013D000DF91CF911F910F91FF90EF90DF90CF9011
:1013E0000895FC01918D828D981761F0828DDF0147
:1013F000A80FB11D5D968C91928D9F5F9F73928F08
:1014000090E008958FEF9FEF0895FC01918D828DFC
:10141000981731F0828DE80FF11D858D90E00895C9
:101420008FEF9FEF0895FC01918D228D892F90E021
:10143000805C9F4F821B91098F739927089588EDD7
:1014400092E0F1DF21E0892B09F420E0822F08955A
:10145000FC01848DDF01A80FB11DA35ABF4F2C9151
:10146000848D90E001968F739927848FA689B78920
:101470002C93A089B1898C9180648C93938D848DF9
:10148000981306C00288F389E02D80818F7D8083C8
:101490000895EF92FF920F931F93CF93DF93EC0188
:1014A00081E0888F9B8D8C8D981305C0E889F98920
:1014B000808185FD23C0F62E0B8D10E00F5F1F4F3E
:1014C0000F731127E02E8C8DE8120BC00FB607FCAE
:1014D000FACFE889F989808185FFF5CFCE01B8DFA1
:1014E000F2CF8B8DFE01E80FF11DE35AFF4FF08222
:1014F0000B8FEA89FB898081806207C0EE89FF89B2
:101500006083E889F98980818064808381E090E04C
:10151000DF91CF911F910F91FF90EF900895CF939E
:10152000DF93EC01888D8823C1F0EA89FB898081F3
:1015300085FD05C0A889B9898C9186FD0EC00FB6BE
:1015400007FCF5CF808185FFF2CFA889B9898C91FE
:1015500085FFEDCFCE017CDFE8CFDF91CF910895FD
:1015600080E090E0892B19F06ADF811125C080E0CE
:1015700090E0892B41F080E090E0892B21F00E94DF
:10158000000081111CC080E090E0892B41F080E0D8
:1015900090E0892B21F00E940000811113C080E0AF
:1015A00090E0892BA1F080E090E0892B81F00E94EF
:1015B000000081110AC008950E940000D8CF0E9447
:1015C0000000E1CF0E940000EACF0C9400000895D3
:1015D00090E0FC013197E231F10508F04EC0882718
:1015E000EE58FF4F8F4F0C94CC15809180008F7771
:1015F00003C0809180008F7D80938000089580914A
:101600008000877FF9CF84B58F7702C084B58F7D46
:1016100084BD08958091B0008F7703C08091B000A1
:101620008F7D8093B0000895809190008F7707C0E0
:10163000809190008F7D03C080919000877F809380
:10164000900008958091A0008F7707C08091A0003E
:101650008F7D03C08091A000877F8093A0000895B4
:10166000809120018F7707C0809120018F7D03C07A
:1016700080912001877F8093200108953FB7F894DF
:101680008091B8029091B902A091BA02B091BB02C8
:1016900026B5A89B05C02F3F19F00196A11DB11DCD
:1016A0003FBFBA2FA92F982F8827820F911DA11D08
:1016B000B11DBC01CD0142E0660F771F881F991F45
:1016C0004A95D1F708950E94E8158091B2028823C7
:1016D00021F186D8C091C4023CDBCC23B1F30FB614
:1016E000F8940F92E091C902F091CA02C681D781A5
:1016F000CE01029628D98091D70281508093D702DB
:101700008091B20281508093B2020F900FBE8F89F8
:10171000988D8FDBCE018DDBD8CF80917603823020
:10172000A0F2A8D8D2CF1F920F920FB60F92112419
:101730000BB60F922F933F934F935F936F937F93CB
:101740008F939F93AF93BF93EF93FF9388ED92E0B6
:101750007FDEFF91EF91BF91AF919F918F917F912C
:101760006F915F914F913F912F910F900BBE0F9012
:101770000FBE0F901F9018951F920F920FB60F92E9
:1017800011240BB60F922F938F939F93EF93FF9398
:10179000E091E802F091E9028081E091EE02F0919F
:1017A000EF0282FD12C090818091F1028F5F8F73F2
:1017B0002091F202821751F0E091F102F0E0E8523C
:1017C000FD4F958F8093F10201C08081FF91EF91D1
:1017D0009F918F912F910F900BBE0F900FBE0F9086
:1017E0001F901895CF93DF93282F30E0F901EE5129
:1017F000FE4F8491F901E456FE4FD491F901EA5A63
:10180000FE4FC491CC2389F08111E2DEEC2FF0E091
:10181000EE0FFF1FE45CFE4FA591B491EC91ED2318
:1018200081E090E021F480E002C080E090E0DF9170
:10183000CF9108951F93CF93DF93282F30E0F901C4
:10184000EE51FE4F8491F901E456FE4FD491F90117
:10185000EA5AFE4FC491CC23C1F0162F8111B8DE95
:10186000EC2FF0E0EE0FFF1FEE5DFE4FA591B4915F
:101870008FB7F894111105C09C91ED2FE095E923E5
:1018800002C0EC91ED2BEC938FBFDF91CF911F91B4
:1018900008951F920F920FB60F9211240BB60F925C
:1018A0002F933F934F935F936F937F938F939F9368
:1018B000AF93BF93EF93FF938091AA029091AB02F5
:1018C000A091AC02B091AD02892B8A2B8B2B59F1E0
:1018D0008091A902E091A702F091A8029081892746
:1018E00080838091AA029091AB02A091AC02B0914A
:1018F000AD02181619061A061B060CF055C0809189
:10190000AA029091AB02A091AC02B091AD020197F6
:10191000A109B1098093AA029093AB02A093AC02F3
:10192000B093AD0241C080910002E8E2F2E0E491A0
:101930009FEF90930002E230C9F050F4EE2399F04B
:10194000E13081F590916F009D7F90936F002AC0E8
:10195000E43019F1E0F0E53029F5909173009D7FB6
:10196000909373001FC010926E001CC09091700085
:101970009D7F9093700091E09093B0009091B100A2
:10198000987F94609093B1001092B3000BC0909137
:1019900071009D7F9093710005C0909172009D7FB2
:1019A0009093720060E046DFFF91EF91BF91AF919D
:1019B0009F918F917F916F915F914F913F912F9167
:1019C0000F900BBE0F900FBE0F901F901895CF93E6
:1019D000DF9390E0FC01E456FE4F2491FC01EA5AAB
:1019E000FE4F8491882361F190E0880F991FFC01DC
:1019F000E85FFE4FC591D491FC01EE5DFE4FA591CD
:101A0000B491611109C09FB7F89488812095822311
:101A10008883EC912E230BC0623061F49FB7F89459
:101A20003881822F809583238883EC912E2B2C93F1
:101A30009FBF06C08FB7F894E8812E2B28838FBFF5
:101A4000DF91CF9108958F929F92AF92BF92CF92E4
:101A5000DF92EF92FF926B017C0110DE4B015C0183
:101A6000C114D104E104F104E9F008DEDC01CB018A
:101A700088199909AA09BB09883E9340A105B105B7
:101A800078F321E0C21AD108E108F10888EE880E47
:101A900083E0981EA11CB11CC114D104E104F1041F
:101AA00021F7DECFFF90EF90DF90CF90BF90AF9007
:101AB0009F908F9008951F920F920FB60F9211244E
:101AC0002F933F938F939F93AF93BF938091B402D3
:101AD0009091B502A091B602B091B7023091B302D5
:101AE00023E0230F2D3720F40196A11DB11D05C061
:101AF00026E8230F0296A11DB11D2093B302809307
:101B0000B4029093B502A093B602B093B70280914D
:101B1000B8029091B902A091BA02B091BB020196AD
:101B2000A11DB11D8093B8029093B902A093BA028F
:101B3000B093BB02BF91AF919F918F913F912F9135
:101B40000F900FBE0F901F9018951092A602E09173
:101B50009B03F0919C030788F08DE02D808191819B
:101B6000A281B381853A954AA54AB54AE9F48481B0
:101B70009581A681B781853A954AA54AB54AA1F4CF
:101B800080859185A285B385853A954AA54AB54A4F
:101B900059F484859585A685B785853A954AA54AE1
:101BA000B54A11F499E011C080919B0390919C0378
:101BB00080919B0390919C0383E090E00E941F051D
:101BC00080919A03815080939A03E0919A039E9F9B
:101BD000F0011124EA58FC4F8081811106C08091E8
:101BE0009A038111EDCF0E944E0580919A0390E0F7
:101BF00049E0489F9001499F300D1124F901EA58AE
:101C0000FC4FA181B28112960D90BC91A02DB283A0
:101C1000A18327583C4FA217B30731F412962D9198
:101C20003C9113973283218329E0289FF001299F5B
:101C3000F00D1124EA58FC4F0180F281E02D8681DD
:101C4000978190939C0380939B030895CF93DF9398
:101C5000E0919B03F0919C039383828320919D03E9
:101C600030919E038217930770F460919B037091EB
:101C70009C038091C0029091C1026E5F7F4FDF9103
:101C8000CF910C94C604EC0160919B0370919C036E
:101C90008091C2029091C3026E5F7F4F0E94C60482
:101CA0008091AE029091AF02C817D90720F4D0936B
:101CB000AF02C093AE02DF91CF910895FC01892B52
:101CC00011F40E944E0561157105D9F30FB6F89411
:101CD0000F9240919D0350919E0330917503208196
:101CE00081819281321719F048175907D8F4DB0126
:101CF0002D913C91DA01A81BB90BA217B30790F400
:101D0000841B950B820F931FDB018D939C93809115
:101D10007503808380919D0390919E0392838183BC
:101D200080E001C081E00F900FBE08950F931F93D4
:101D3000CF93DF93DC011596ED91FC911697C68148
:101D4000D781209711F40E944E058E01045F1F4F2A
:101D5000C8010E94A30480919F03811114C00A50FE
:101D60001109C8010E94A3049E8980919A038917D2
:101D700010F490939A03B9E09B9FC0011124B8011D
:101D80008A589C4F03C0B8018DEC92E00E94FE047B
:101D9000E0919B03F0919C039E898689891720F42A
:101DA00081E08093A60201C080E0DF91CF911F9176
:101DB0000F910895009761F0FC0101900020E9F770
:101DC0003197AF01481B590BBC0188ED92E0DECA88
:101DD00080E090E008950F931F93CF93DF93C0E0CE
:101DE000D0E0082F10E0B8010C2E02C07595679561
:101DF0000A94E2F76170772784E31CDD61E082E3F7
:101E000019DD60E082E316DD2196C830D10559F76F
:101E1000DF91CF911F910F910895CF93DF93809120
:101E20009F0381110E944E050E94F003C0919D0303
:101E3000D0919E0380919B0390919C0302960E94F7
:101E4000A304CE01C29602DF0E94A906811102C03E
:101E50000E943A04DF91CF910895CF92DF92EF92E2
:101E6000FF920F931F93CF93DF9300D01F921F9287
:101E7000CDB7DEB78C017B015D834C83009711F4F5
:101E80000E944E05672B21F4FC01848D8111F8CF4F
:101E900090E06801F8E0CF0ED11C0FB6F8940F92D5
:101EA000F801228D838D281708F078C0448D4111E8
:101EB00048C080819181892B09F05AC0F801E280E5
:101EC000F380E114F10411F480E037C080919B03AA
:101ED00090919C03E816F90699F6F70182A18823F0
:101EE00079F2815082A3268991A1291769F3811182
:101EF000EBCF6701F2E0CF0ED11CC6010E94A30414
:101F0000F70191A1968B492F50E024E030E0241B8B
:101F1000350B3587248780919A03891710F49093A5
:101F20009A0329E0249FC001259F900D1124B6013A
:101F30008A589C4F0E94FE0481E0F80113821282AD
:101F400018C050E0B701F8018481958145D6F801A9
:101F5000248D84819581820F911D958384832281B4
:101F600033818217930720F0808191819583848348
:101F700080E0F801928D9F5F928F9189992341F0C3
:101F8000C8014196D3DE813029F40E943A0402C090
:101F90008111FBCF0F900FBE81E054C02C813D8199
:101FA000232B19F40F900FBE4CC0911109C08091E2
:101FB0007503898380919D0390919E039B838A83FF
:101FC0000F900FBE0E94F0030FB6F8940F92F80125
:101FD000858D8F3F09F4158EF801868D8F3F09F4AA
:101FE000168E0F900FBEBE016C5F7F4FCE01019623
:101FF00065DE811121C00FB6F8940F92F801928D21
:102000000F900FBE838D981311C06C817D81C60126
:102010000E945105C8010E94F6030E94A906882368
:1020200011F091E03ACF0E943A04FBCFC8010E9420
:10203000F6030E94A906F5CFC8010E94F6030E948C
:10204000A90680E00F900F900F900F900F90DF91F6
:10205000CF911F910F91FF90EF90DF90CF90089557
:10206000CF93DF93A7DEEC018BE792E0A3DE8C0F2A
:102070009D1FDF91CF9108958F929F92AF92BF9253
:10208000CF92DF92EF92FF920F931F93CF93DF9344
:10209000CDB7DEB7A1970FB6F894DEBF0FBECDBFA8
:1020A0006C01990FEE08FF08F7FE2FC0E091D802EF
:1020B000F091D9020190F081E02D6DE288ED92E07F
:1020C00019958C0122273327A9012C193D094E09A6
:1020D0005F0919A2CE0181967C019AE0892E912C8C
:1020E000A12CB12CCA01B901A501940133D5605DC1
:1020F000F70162937F01211531054105510591F7E3
:10210000CF0158DE080F191F1CC0A701960119A2A4
:102110008E010F5D1F4F8AE0C82ED12CE12CF12CCF
:10212000CA01B901A701960115D5605DF801629356
:102130008F01211531054105510591F7CF013ADE97
:102140008C018BE792E036DE800F911FA1960FB6CF
:10215000F894DEBF0FBECDBFDF91CF911F910F91DD
:10216000FF90EF90DF90CF90BF90AF909F908F90B7
:102170000895CF93DF93E091D802F091D9020190B6
:10218000F081E02D682F88ED92E01995EC018BE746
:1021900092E010DE8C0F9D1FDF91CF9108956F921A
:1021A0007F929F92AF92BF92CF92DF92EF92FF9277
:1021B0000F931F93CF93DF935C01962EC72EEA01F6
:1021C000D22E892B11F40E944E05822F90E00497A5
:1021D000D4F7CA010E9428073C01892B09F490C159
:1021E00089E290E00E9428077C010097D1F0DC0191
:1021F00058967C926E925797AE0165EA70E0C301E3
:10220000F4D42197D7015796ED91FC915897EC0F94
:10221000FD1FB701675E7F4FA92DBC2DCD0108962C
:1022200007C0C3010E9419076BC1A817B90749F07D
:102230009D014D91EB014993BE01E90128812111D6
:10224000F4CFD70190961C928D2DB3E0BD1508F404
:1022500083E0E7018E8B89A31AA21B861A861D8A4A
:102260001C8AF986E88624E030E0A901481B510960
:102270005D874C87FB8AEA8A1BA21CA21DA21EA2B4
:1022800018A61FA291E19083DF01119782E28C933F
:10229000119723E32C931197AC921197BC9211974D
:1022A0001C9211971C92119720E82C9311971C9265
:1022B00011971C9211971C92119722E02C93119761
:1022C00023E02C93119724E02C93119725E02C9375
:1022D000119726E02C93119727E02C93119728E073
:1022E0002C93119729E02C93119720E12C931197AF
:1022F0009C93119792E19C93119793E19C93119772
:1023000094E19C93119795E19C93119796E19C938E
:10231000119797E19C93119798E19C93119799E1FC
:102320009C93119790E29C93119791E29C93119743
:102330008C93119783E28C9311971C9211971C92A6
:10234000119786E28C93119787E28C93119788E21C
:102350008C93119789E28C93119780E38C9311975A
:1023600081E38C93B997F983E8830115110519F07E
:10237000F801F182E0820FB6F8940F928091D702B3
:102380008F5F8093D70280919B0390919C03892B50
:1023900009F07DC0F0929C03E0929B038091D702EC
:1023A000813009F083C0E6E7F3E04FEF5FEF9F0174
:1023B0002D5F3F4F328321838FEF9FEF5483438301
:1023C00036832583308727831082399623E0EA39C4
:1023D000F20769F72CEA33E03093AB032093AA03AA
:1023E0009093AD038093AC033093AF032093AE037F
:1023F0003093B1032093B0031092A90323EA33E092
:102400003093A2032093A1039093A4038093A3038A
:102410003093A6032093A5033093A8032093A7032A
:102420001092A00320ED32E03093CF022093CE0231
:102430009093D1028093D0023093D3022093D202A2
:102440003093D5022093D4021092CD0227EC32E0D3
:102450003093C6022093C5029093C8028093C702AE
:102460003093CA022093C9023093CC022093CB024E
:102470001092C40289EA93E09093C3028093C2024F
:1024800080EA93E09093C1028093C0020FC08091D4
:10249000D60281110BC0E0919B03F0919C038689C9
:1024A000D81620F0F0929C03E0929B038091B20337
:1024B0008F5F8093B203D70156968C9190919A03C7
:1024C000981710F480939A03B7016E5F7F4FB9E0BD
:1024D0008B9FC00111248A589C4F0E94FE040F90CC
:1024E0000FBE8091D602882349F0E0919B03F091C2
:1024F0009C0386898D1510F40E943A0481E001C086
:102500008FEFDF91CF911F910F91FF90EF90DF90B0
:10251000CF90BF90AF909F907F906F9008951F9342
:10252000CF93DF93182FC82FD0E0882319F0CE0166
:10253000019602C080E090E04F960E942807FC01BF
:10254000009749F0111103C09183808306C04F9614
:102550009183808302C00E944E0581E0838F148F97
:102560000FB6F8940F9280819181C80FD91FD38341
:10257000C283128E95838483978386838FEF858FA2
:10258000868FCF010B96928781872FEF3FEF34879D
:10259000238796878587908B878710860996938BEC
:1025A000828B358B248B978B868B918F808F118AB2
:1025B0000F900FBECF01DF91CF911F910895E8EDED
:1025C000F2E01382128288EE93E0A0E0B0E0848310
:1025D0009583A683B7838BE092E09183808385EC1B
:1025E00090E09587848784EC90E09787868780ECDD
:1025F00090E0918B808B81EC90E0938B828B82ECCE
:1026000090E0958B848B86EC90E0978B868B118E77
:10261000128E138E148E0895789484B5826084BDD2
:1026200084B5816084BD85B5826085BD85B58160D6
:1026300085BD80916E00816080936E001092810054
:10264000809181008260809381008091810081600F
:1026500080938100809180008160809380008091D0
:10266000B10084608093B1008091B000816080935C
:10267000B0008091910082608093910080919100E0
:1026800081608093910080919000816080939000A0
:102690008091A10082608093A1008091A10081605F
:1026A0008093A1008091A00081608093A000809120
:1026B00021018260809321018091210181608093BA
:1026C00021018091200181608093200180917A0016
:1026D000846080937A0080917A00826080937A008F
:1026E00080917A00816080937A0080917A0080687E
:1026F00080937A001092C10060E08CE268D960E0BB
:102700008AE265D960E084E262D960E086E25FD95E
:1027100060E088E25CD961E084E359D961E082E35A
:1027200056D961E080E353D961E082E250D961E09B
:102730008CE14DD961E080E24AD961E08AE147D974
:1027400061E08EE144D961E08EE241D961E082E04E
:102750003ED90E944707E091E802F091E90282E049
:102760008083E091E802F091E9021082E091E402B6
:10277000F091E5021082E091E602F091E70280E13B
:1027800080831092F002E091EC02F091ED0286E07D
:102790008083E091EA02F091EB0280818061808386
:1027A000E091EA02F091EB02808188608083E09101
:1027B000EA02F091EB02808180688083E091EA0276
:1027C000F091EB0280818F7D808383E0A8DE90937F
:1027D000B1028093B00280E0A2DE9093BF028093AA
:1027E000BE02009729F040E050E060E070E035DB89
:1027F00000E010E023E040E051E064E372E087E5B0
:1028000093E0CDDC21E040E051E060E472E080EA5A
:1028100097E0C5DC22E040E051E06DE472E085E243
:1028200093E0BDDC0CEB12E020E044E650E06AE50A
:1028300072E085E69BE0B3DC813009F043C0F89498
:102840002FEF3FEF3093AF022093AE028093D6027A
:1028500010929E0310929D0387BD80916E0082604E
:1028600080936E00A0919B03B0919C03CD91CDBF4E
:10287000DD91DEBFFF91EF91DF91CF91BF91AF91DD
:102880009F918F917F916F915F914F913F912F9188
:102890001F910F91FF90EF90DF90CF90BF90AF907E
:1028A0009F908F907F906F905F904F903F902F9070
:1028B0001F900F900CBE0F900BBE0F900FBE0F908D
:1028C000089504C0811102C00E944E058FE592E078
:1028D000C7DBFFCFCF93DF938230910510F482E006
:1028E00090E0E091B503F091B60320E030E0C0E065
:1028F000D0E0309711F14081518148175907C0F05D
:102900004817590761F482819381209719F09B83BE
:102910008A832BC09093B6038093B50326C02115FC
:10292000310519F04217530718F49A01BE01DF016F
:10293000EF010280F381E02DDCCF2115310509F193
:10294000281B390B2430310590F412968D919C91FF
:1029500013976115710521F0FB019383828304C0F5
:102960009093B6038093B503FD01329644C0FD01F8
:10297000E20FF31F81939193225031092D933C93E1
:102980003AC02091B3033091B403232B41F420913A
:102990000302309104023093B4032093B3032091D7
:1029A0000102309102022115310541F42DB73EB7E5
:1029B0004091050250910602241B350BE091B303B0
:1029C000F091B403E217F307A0F42E1B3F0B281776
:1029D000390778F0AC014E5F5F4F2417350748F098
:1029E0004E0F5F1F5093B4034093B30381939193B1
:1029F00002C0E0E0F0E0CF01DF91CF9108950F93A6
:102A00001F93CF93DF93009709F48CC0FC0132979A
:102A1000138212820091B5031091B60301151105BE
:102A200081F420813181820F931F2091B303309173
:102A3000B4032817390779F5F093B403E093B3038F
:102A400071C0D80140E050E0AE17BF0750F41296B5
:102A50002D913C911397AD012115310509F1D90153
:102A6000F3CF9D01DA013383228360817181860F68
:102A7000971F8217930769F4EC0128813981260F8B
:102A8000371F2E5F3F4F318320838A819B81938341
:102A90008283452B29F4F093B603E093B50342C03B
:102AA0001396FC93EE931297ED01499159919E0173
:102AB000240F351FE217F30771F480819181840F91
:102AC000951F029611969C938E9382819381139603
:102AD0009C938E931297E0E0F0E0D80112968D91CE
:102AE0009C911397009719F0F8018C01F6CF8D9106
:102AF0009C9198012E5F3F4F820F931F2091B3034B
:102B00003091B4032817390769F4309729F41092EB
:102B1000B6031092B50302C0138212821093B4035D
:102B20000093B303DF91CF911F910F91089597FB0D
:102B3000072E16F4009406D077FD08D035D007FC98
:102B400005D03EF4909581959F4F089570956195BD
:102B50007F4F0895A1E21A2EAA1BBB1BFD010DC0D9
:102B6000AA1FBB1FEE1FFF1FA217B307E407F5073D
:102B700020F0A21BB30BE40BF50B661F771F881F19
:102B8000991F1A9469F760957095809590959B01AF
:102B9000AC01BD01CF010895EE0FFF1F881F8BBF51
:102BA0000790F691E02D1994AA1BBB1B51E107C0B9
:102BB000AA1FBB1FA617B70710F0A61BB70B881FCD
:102BC000991F5A95A9F780959095BC01CD0108955C
:102BD00081E090E0F89410C0FB01DC0102C001909C
:102BE0000D9241505040D8F70895DC0101C06D931B
:0C2BF00041505040E0F70895F894FFCFEA
:102BFC00FF0000B703800000000000490AC609135B
:102C0C000AF109050A8F0AF731DB7B3D7EFE33FFA3
:102C1C003F00E721CB6B2D6EEE23EF2F004F4B00C7
:102C2C0061636B00546172656120626F746F6E003A
:102C3C0054617265612073616C69646100546172E6
:102C4C0065612073657269616C0049444C450048AC
:102C5C006F7573746F6E2074656E656D6F73207510
:0E2C6C006E2070726F626C656D61000D0A0063
:020000023000CC
:10E000000D9489F10D94B2F10D94B2F10D94B2F129
:10E010000D94B2F10D94B2F10D94B2F10D94B2F1F0
:10E020000D94B2F10D94B2F10D94B2F10D94B2F1E0
:10E030000D94B2F10D94B2F10D94B2F10D94B2F1D0
:10E040000D94B2F10D94B2F10D94B2F10D94B2F1C0
:10E050000D94B2F10D94B2F10D94B2F10D94B2F1B0
:10E060000D94B2F10D94B2F10D94B2F10D94B2F1A0
:10E070000D94B2F10D94B2F10D94B2F10D94B2F190
:10E080000D94B2F10D94B2F10D94B2F10D94B2F180
:10E090000D94B2F10D94B2F10D94B2F10D94B2F170
:10E0A0000D94B2F10D94B2F10D94B2F10D94B2F160
:10E0B0000D94B2F10D94B2F10D94B2F10D94B2F150
:10E0C0000D94B2F10D94B2F10D94B2F10D94B2F140
:10E0D0000D94B2F10D94B2F10D94B2F10D94B2F130
:10E0E0000D94B2F141546D656761323536300041AF
:10E0F000726475696E6F206578706C6F72657220DE
:10E1000073746B3530305632206279204D4C530099
:10E11000426F6F746C6F616465723E004875683F52
:10E1200000436F6D70696C6564206F6E203D200048
:10E130004350552054797065202020203D20005FF9
:10E140005F4156525F415243485F5F3D2000415658
:10E1500052204C696243205665723D20004743437C
:10E160002056657273696F6E203D20004350552024
:10E1700049442020202020203D20004C6F7720663D
:10E18000757365202020203D20004869676820665F
:10E190007573652020203D200045787420667573D6
:10E1A00065202020203D20004C6F636B2066757336
:10E1B000652020203D20004D617220203720323024
:10E1C000313300312E362E3800342E332E350056A2
:10E1D00023202020414444522020206F7020636F70
:10E1E00064652020202020696E73747275637469E1
:10E1F0006F6E2061646472202020496E74657272B3
:10E20000757074006E6F20766563746F7200726A49
:10E210006D702020006A6D70200057686174207056
:10E220006F72743A00506F7274206E6F7420737541
:10E2300070706F72746564004D7573742062652030
:10E2400061206C6574746572002000577269747483
:10E25000696E672045450052656164696E672045B7
:10E26000450045452065727220636E743D00504F35
:10E27000525400303D5A65726F2061646472003FF1
:10E280003D43505520737461747300403D454550C3
:10E29000524F4D207465737400423D426C696E6B41
:10E2A000204C454400453D44756D70204545505215
:10E2B0004F4D00463D44756D7020464C415348001B
:10E2C000483D48656C70004C3D4C69737420492F83
:10E2D0004F20506F72747300513D51756974005234
:10E2E0003D44756D702052414D00563D73686F7707
:10E2F00020696E7465727275707420566563746FF0
:10E30000727300593D506F727420626C696E6B00BD
:10E310002A0011241FBECFEFD1E2DEBFCDBF01E046
:10E320000CBF12E0A0E0B2E0EEE1FDEF03E00BBFB6
:10E3300002C007900D92A030B107D9F712E0A0E01B
:10E34000B2E001C01D92AE30B107E1F70F9460F367
:10E350000D948DFE01E20EBF0FEF0DBF11241FBE05
:10E360000D9460F30D9400F020E030E040ED57E0B4
:10E3700005C0FA013197F1F72F5F3F4F2817390792
:10E38000C0F308959C01260F311DC901A0E0B0E043
:10E390002F5F3F4FABBFFC018791882361F08093D3
:10E3A000C6008091C00086FFFCCF8091C0008064D1
:10E3B0008093C000EACF08958DE08093C6008091DD
:10E3C000C00086FFFCCF8091C00080648093C000B5
:10E3D0008AE08093C6008091C00086FFFCCF8091C8
:10E3E000C00080648093C00008950F94C2F10F9420
:10E3F000DCF10895FC019081992359F09093C600B7
:10E400008091C00086FFFCCF8091C0008064809323
:10E41000C0003196992379F70895282F982F929567
:10E420009F70892F805D8A3308F0895F8093C600D2
:10E430008091C00086FFFCCF8091C00080648093F3
:10E44000C000822F8F70982F905D9A3308F0995FEB
:10E450009093C6008091C00086FFFCCF8091C000E1
:10E4600080648093C00008959C01FB01853691056E
:10E470001CF46330710594F0C90164E670E00F94F8
:10E480002EFE605D7F4F6093C6008091C00086FFC6
:10E49000FCCF8091C00080648093C0002B30310598
:10E4A00014F43297B4F0C90164E670E00F942EFEC4
:10E4B0006AE070E00F942EFE605D7F4F6093C600AF
:10E4C0008091C00086FFFCCF8091C0008064809363
:10E4D000C000C9016AE070E00F942EFEC0968093E0
:10E4E000C6008091C00086FFFCCF8091C000806490
:10E4F0008093C00008951F93182F8EE692EE60E07F
:10E500000F94C2F11093C6008091C00086FFFCCF2B
:10E510008091C00080648093C0000F94DCF11F9153
:10E5200008952F923F924F925F926F927F928F92B7
:10E530009F92AF92BF92CF92DF92EF92FF920F9392
:10E540001F93DF93CF93CDB7DEB762970FB6F894E2
:10E55000DEBF0FBECDBF382E622ECA01DB015C01CB
:10E560006D01772420E2222E2E010894411C511CBB
:10E570008BC081E0A81680E0B80681E0C80680E084
:10E58000D80628F0C601AA27BB270F940DF2BB2797
:10E59000AD2D9C2D8B2D0F940DF28A2D0F940DF225
:10E5A0002092C6008091C00086FFFCCF8091C00001
:10E5B00080648093C0009DE29093C6008091C0006B
:10E5C00086FFFCCF8091C00080648093C0002092C1
:10E5D000C6008091C00086FFFCCF8091C00080649F
:10E5E0008093C00019828601750188249924A1E0D6
:10E5F0003A1651F03A1620F0B2E03B1661F409C029
:10E600000BBFF701779007C0C7010F9477FE782EF4
:10E6100002C0F7017080872D0F940DF22092C60082
:10E620008091C00086FFFCCF8091C0008064809301
:10E63000C000872D8052F401EF70F0708F3520F408
:10E64000E40DF51D708204C0E40DF51D8EE280839B
:10E650000894E11CF11C011D111D0894811C911CE2
:10E6600090E18916910409F0C2CF80E190E0A0E02A
:10E67000B0E0A80EB91ECA1EDB1E198AC2010F9493
:10E68000FAF10F94DCF16A94662009F072CF629679
:10E690000FB6F894DEBF0FBECDBFCF91DF911F91B3
:10E6A0000F91FF90EF90DF90CF90BF90AF909F9031
:10E6B0008F907F906F905F904F903F902F90089534
:10E6C0002F923F924F925F926F927F928F929F9282
:10E6D000AF92BF92CF92DF92EF92FF920F931F9370
:10E6E000DF93CF93CDB7DEB7CD53D1400FB6F894BB
:10E6F000DEBF0FBECDBF01E20EBF0FEF0DBF94B75F
:10E70000F894A89514BE80916000886180936000A1
:10E7100010926000789493FF05C0E0910002F091A0
:10E7200001021995279A2F9A8091C00082608093E8
:10E73000C00080E18093C40088E18093C1000000A4
:10E74000EE24FF24870144E0A42EB12CCC24DD2448
:10E7500024C0C5010197F1F70894E11CF11C011DCB
:10E76000111D21E2E2162EE4F20620E0020720E06D
:10E77000120718F031E0C32ED12CC801B70127ECE5
:10E780003BE140E050E00F9441FE611571058105C9
:10E79000910519F485B1805885B98091C00087FD35
:10E7A00003C0C114D104A9F2A6014F5F5F4FC25E3E
:10E7B000DE4F59834883CE51D140C25EDE4F8881FF
:10E7C0009981CE51D140019711F00D9410FEC05D9A
:10E7D000DE4F19821882C053D14060E0C15DDE4F28
:10E7E0001882CF52D14088249924C35DDE4F19820C
:10E7F0001882CD52D140C05EDE4F188219821A8233
:10E800001B82C052D140CE5CDE4F188219821A8220
:10E810001B82C253D140EE24FF2487010BBFF701B6
:10E8200007911691C45CDE4F19830883CC53D14005
:10E830000D940BFEC25EDE4F28813981CE51D1404E
:10E840002130310509F52091C600C25EDE4F1982E4
:10E850001882CE51D14022C02F5F3F4F4F4F5F4FA4
:10E86000213082E138078AE7480780E0580780F0C6
:10E87000C45CDE4FE881F981CC53D140EF5FFF4F9C
:10E8800019F0EE27FF27099420E030E040E050E047
:10E890008091C00087FFE0CF2091C600C35DDE4FAE
:10E8A00048815981CD52D1404F5F5F4FC35DDE4FEC
:10E8B00059834883CD52D140213209F063C64A3092
:10E8C000510508F05FC60894811C911C53E0851621
:10E8D000910409F059C600E010E018C081E280936D
:10E8E000C6008091C00086FFFCCF8091C00080648C
:10E8F0008093C0002F5F3F4F2931310579F70F9486
:10E90000DCF10F5F1F4F0530110519F020E030E0FA
:10E91000E5CF10920A0210920B0210920C02109294
:10E920000D02109206021092070210920802109235
:10E930000902109202021092030210920402109235
:10E9400005028FEE90EE60E00F94F5F180E191EE1C
:10E9500060E00F94C2F18091C00087FFFCCF9091DE
:10E96000C600903608F09F759032B8F09093C600BC
:10E970008091C00086FFFCCF8091C00080648093AE
:10E98000C000A0E2A093C6008091C00086FFFCCF2B
:10E990008091C00080648093C000983409F4D7C18E
:10E9A0009934B8F4923409F459C1933458F490333B
:10E9B00019F1903308F4E3C59F33A1F1903409F0C5
:10E9C000DEC5BDC0953409F470C1963409F0D7C5D1
:10E9D00098C1923509F42BC2933538F49C3409F46C
:10E9E000F5C1913509F0CBC518C2963509F445C279
:10E9F000993509F0C4C567C483E792EE62E00F94CD
:10EA0000F5F110920602109207021092080210927D
:10EA1000090210920A0210920B0210920C0210923C
:10EA20000D0213C18FE792EE62E00F94F5F18FEEC5
:10EA300090EE60E00F94F5F181E291EE60E00F94CA
:10EA4000C2F187EB91EE60E00F94F5F180E391EE77
:10EA500060E00F94C2F184EE90EE60E00F94F5F167
:10EA60008FE391EE60E00F94C2F186E090E061E008
:10EA700070E00F9434F20F94DCF18DE591EE60E0DC
:10EA80000F94C2F189EC91EE60E00F94F5F18EE401
:10EA900091EE60E00F94C2F183EC91EE60E00F9490
:10EAA000F5F18CE691EE60E00F94C2F18EE10F94E7
:10EAB0000DF288E90F940DF281E00F940DF20F949E
:10EAC000DCF18BE791EE60E00F94C2F119E0E0E039
:10EAD000F0E010935700E4918E2F0F940DF20F94F5
:10EAE000DCF18AE891EE60E00F94C2F1E3E0F0E03F
:10EAF00010935700E4918E2F0F940DF20F94DCF1D8
:10EB000089E991EE60E00F94C2F1E2E0F0E0109349
:10EB10005700E4918E2F0F940DF20F94DCF188EAE8
:10EB200091EE60E00F94C2F1E1E0F0E01093570045
:10EB30001491812F0F940DF20F94DCF107CF8BE825
:10EB400092EE62E00F94F5F18BE492EE60E00F94A8
:10EB5000F5F10F94DCF100E010E019C0C8016F2D51
:10EB60000F947FFEFF2031F489E492EE60E00F9471
:10EB7000C2F10BC0F092C6008091C00086FFFCCFAE
:10EB80008091C00080648093C0000F5F1F4FC80158
:10EB900081519F41A0E0B0E0ABBFFC01F790BAE229
:10EBA000FB1621F0E2E000301E07C1F60F94DCF105
:10EBB0000F94DCF187E592EE60E00F94F5F10F948D
:10EBC000DCF1CC24DD2400E010E01EC0C8010F946D
:10EBD00077FEF82E882331F489E492EE60E00F94FA
:10EBE000C2F10BC08093C6008091C00086FFFCCFAD
:10EBF0008091C00080648093C000FE1419F00894D6
:10EC0000C11CD11C0F5F1F4FC80181519F41A0E063
:10EC1000B0E0ABBFFC01E790FAE2EF1621F022E092
:10EC20000030120799F60F94DCF10F94DCF182E6C4
:10EC300092EE60E00F94C2F1C60161E070E00F94C3
:10EC400034F20F94DCF10F94DCF110920202109276
:10EC50000302109204021092050278CE89E992EE26
:10EC600062E00F94F5F1279A2F9A16C02F9880E052
:10EC700090E0E0EDF7E03197F1F7019684369105E9
:10EC8000C1F72F9A80E090E0E0EDF7E03197F1F7DF
:10EC9000019684369105C1F78091C00087FFE6CFC9
:10ECA0008091C00087FFFCCF64C485EA92EE62E0E9
:10ECB0000F94F5F140910202509103026091040219
:10ECC0007091050281E020E10F9491F2809102029F
:10ECD00090910302A0910402B091050280509F4FD1
:10ECE000AF4FBF4F8093020290930302A0930402A0
:10ECF000B093050280509041A040B04008F426CE69
:10ED0000A4CF83EB92EE62E00F94F5F140910602FE
:10ED100050910702609108027091090280E020E1A1
:10ED20000F9491F28091060290910702A09108023F
:10ED3000B091090280509F4FAF4FBF4F80930602A2
:10ED400090930702A0930802B0930902FFCD80ECD4
:10ED500092EE62E00F94F5F183E792EE60E00F949B
:10ED6000F5F18FE792EE60E00F94F5F18BE892EE0B
:10ED700060E00F94F5F189E992EE60E00F94F5F10F
:10ED800085EA92EE60E00F94F5F183EB92EE60E09D
:10ED90000F94F5F180EC92EE60E00F94F5F187ECC2
:10EDA00092EE60E00F94F5F188ED92EE60E00F9442
:10EDB000F5F18FED92EE60E00F94F5F18AEE92EEB0
:10EDC00060E00F94F5F183E093EEBDCD87EC92EE19
:10EDD00062E00F94F5F181E40F947BF282E40F94EA
:10EDE0007BF283E40F947BF284E40F947BF285E45E
:10EDF0000F947BF286E40F947BF287E40F947BF20E
:10EE000088E40F947BF28AE40F947BF28BE40F94F6
:10EE10007BF28CE40F947BF299CD88ED92EE62E068
:10EE20000F94F5F1772473948824992409C48FED05
:10EE300092EE62E00F94F5F140910A0250910B02BC
:10EE400060910C0270910D0282E020E10F9491F22A
:10EE500080910A0290910B02A0910C02B0910D02D8
:10EE600080509F4FAF4FBF4F80930A0290930B0289
:10EE7000A0930C02B0930D0269CD8AEE92EE62E08F
:10EE80000F94F5F184EE90EE60E00F94F5F18FECC5
:10EE900091EE60E00F94F5F1662477244301CC5D98
:10EEA000DE4F19821882C452D140D401C301B695F5
:10EEB000A79597958795CA5DDE4F88839983AA8326
:10EEC000BB83C652D140CC5DDE4FA881B981C4520C
:10EED000D1401196CC5DDE4FB983A883C452D14096
:10EEE000CD0162E070E00F9434F2B0E2B093C6005E
:10EEF0008091C00086FFFCCF8091C0008064809329
:10EF0000C000EDE2E093C6008091C00086FFFCCF18
:10EF10008091C00080648093C000F0E2F093C6004E
:10EF20008091C00086FFFCCF8091C00080648093F8
:10EF3000C000CA5DDE4FE880F9800A811B81C6529D
:10EF4000D140BB27A12F902F8F2D0F940DF2CA5DBA
:10EF5000DE4F8881C652D1400F940DF2B0E2FB2EF5
:10EF6000F092C6008091C00086FFFCCF8091C00067
:10EF700080648093C0000DE30093C6008091C000C0
:10EF800086FFFCCF8091C00080648093C00010E2B7
:10EF90001093C6008091C00086FFFCCF8091C00016
:10EFA00080648093C0008BBEF3012791C65DDE4F65
:10EFB0002883CA52D140A22EBB24CC24DD2408943D
:10EFC000611C711C811C911C8BBEF3018791282E42
:10EFD0003324442455240894611C711C811C911C09
:10EFE0008BBEF3013791C55DDE4F3883CB52D140E4
:10EFF0000894611C711C811C911C8BBEF30147910C
:10F00000C45DDE4F4883CC52D140ADEFEA2EAFEF66
:10F01000FA2EAFEF0A2FAFEF1A2F6E0C7F1C801E57
:10F02000911E142D032DF22CEE24EA0CFB1C0C1D5A
:10F030001D1D0F940DF220E22093C6008091C000A8
:10F0400086FFFCCF8091C00080648093C000C65DC5
:10F05000DE4F8881CA52D1400F940DF230E23093D6
:10F06000C6008091C00086FFFCCF8091C000806404
:10F070008093C000C45DDE4F8881CC52D1400F9494
:10F080000DF240E24093C6008091C00086FFFCCFA5
:10F090008091C00080648093C000C55DDE4F888190
:10F0A000CB52D1400F940DF250E25093C6008091A4
:10F0B000C00086FFFCCF8091C00080648093C000B8
:10F0C0008FEFE8168FEFF80680E0080780E018075A
:10F0D00031F484E092EE60E00F94C2F1DFC0D80119
:10F0E000C7018070907CA070B0708050904CA040A0
:10F0F000B040D1F52FEF3FE340E050E0E222F322B1
:10F1000004231523CA5DDE4FA880B980CA80DB8046
:10F11000C652D140AE0CBF1CC01ED11EAA0CBB1CD7
:10F12000CC1CDD1C8EE092EE60E00F94C2F1BB2798
:10F13000A12F902F8F2D0F940DF28E2D0F940DF285
:10F1400030E23093C6008091C00086FFFCCF8091F2
:10F15000C00080648093C0004EE34093C60080915D
:10F16000C00086FFFCCF87C08EE09EEFA0E0B0E03D
:10F17000E822F9220A231B239CE0E91694E9F90608
:10F1800090E0090790E0190709F088C0C45DDE4FE0
:10F19000A881CC52D140EA2EFF2400E010E0102FCD
:10F1A0000F2DFE2CEE24C55DDE4FB881CB52D14031
:10F1B000EB0EF11C011D111DD601C501817090706F
:10F1C000A070B070DC0199278827E80EF91E0A1F8D
:10F1D0001B1F20EF30E040E050E0A222B322C42207
:10F1E000D52241E1AA0CBB1CCC1CDD1C4A95D1F7F1
:10F1F000EA0CFB1C0C1D1D1D81E090E0A0E0B0E0BE
:10F20000282239224A225B2235E1220C331C441C7D
:10F21000551C3A95D1F7E20CF31C041D151D57013E
:10F220006801AA0CBB1CCC1CDD1C85E192EE60E0E1
:10F230000F94C2F1C801AA27BB270F940DF2BB2778
:10F24000A12F902F8F2D0F940DF28E2D0F940DF274
:10F2500090E29093C6008091C00086FFFCCF809121
:10F26000C00080648093C000AEE3A093C60080918C
:10F27000C00086FFFCCF8091C00080648093C000F6
:10F28000C601AA27BB270F940DF2BB27AD2D9C2DDD
:10F290008B2D0F940DF28A2D0F940DF20F94DCF14B
:10F2A000CC5DDE4FE881F981C452D140F99709F471
:10F2B0004DCBF4E0EF2EF12C012D112D6E0C7F1CA7
:10F2C000801E911EF2CD83E093EE62E00F94F5F183
:10F2D0008AE192EE60E00F94C2F18091C00087FF56
:10F2E000FCCF1091C6001F751093C6008091C0001E
:10F2F00086FFFCCF8091C00080648093C0000F9493
:10F30000DCF1812F81548A3108F036C1163409F4BA
:10F3100095C0173490F4133409F44EC0143430F40B
:10F320001134F1F0123409F01DC130C0143409F465
:10F3300059C0153409F016C16BC01A3409F4C4C0A1
:10F340001B3438F4173409F48FC0183409F00AC19B
:10F35000A1C01B3409F4D2C01C3409F003C1E8C0B9
:10F360008FEF81B90DC082B1809582B980E090E0C5
:10F37000E0EDF7E03197F1F70196883C9105C1F790
:10F380008091C00087FFEFCF12B8EFC08FEF84B934
:10F390000DC085B1809585B980E090E0E0EDF7E0A3
:10F3A0003197F1F70196883C9105C1F78091C00033
:10F3B00087FFEFCF15B8D9C08FEF87B90DC088B1DF
:10F3C000809588B980E090E0E0EDF7E03197F1F7C3
:10F3D0000196883C9105C1F78091C00087FFEFCF6F
:10F3E00018B8C3C08FEF8AB90DC08BB180958BB9A7
:10F3F00080E090E0E0EDF7E03197F1F70196883C8E
:10F400009105C1F78091C00087FFEFCF1BB8ADC059
:10F410008FEF8DB90DC08EB180958EB980E090E0F0
:10F42000E0EDF7E03197F1F70196883C9105C1F7DF
:10F430008091C00087FFEFCF1EB897C08FEF80BBD1
:10F440000DC081B3809581BB80E090E0E0EDF7E0F6
:10F450003197F1F70196883C9105C1F78091C00082
:10F4600087FFEFCF11BA81C08FEF83BB0DC084B38C
:10F47000809584BB80E090E0E0EDF7E03197F1F714
:10F480000196883C9105C1F78091C00087FFEFCFBE
:10F4900014BA6BC08FEF809301010FC080910201FD
:10F4A00080958093020180E090E0E0EDF7E03197F5
:10F4B000F1F70196883C9105C1F78091C00087FF64
:10F4C000EDCF1092020151C08FEF809304010FC065
:10F4D0008091050180958093050180E090E0E0ED4A
:10F4E000F7E03197F1F70196883C9105C1F78091DB
:10F4F000C00087FFEDCF1092050137C08FEF8093DA
:10F5000007010FC08091080180958093080180E079
:10F5100090E0E0EDF7E03197F1F70196883C910536
:10F52000C1F78091C00087FFEDCF109208011DC088
:10F530008FEF80930A010FC080910B01809580931B
:10F540000B0180E090E0E0EDF7E03197F1F70196F4
:10F55000883C9105C1F78091C00087FFEDCF1092E4
:10F560000B0103C085E292EEEEC98091C00087FFD7
:10F57000FCCF8091C600EAC988E392EEE4C98CE131
:10F5800091EEE1C988249924933011F1943028F444
:10F59000913089F09230B8F408C0953061F195301F
:10F5A000F0F0963009F048C043C02B3109F042C951
:10F5B00091E06BE13FC96227C15DDE4F2883CF52E6
:10F5C000D14092E037C9B22FA0E0622793E032C960
:10F5D000822F90E0A82BB92B622794E02BC92E3004
:10F5E00009F039C3622795E0C05DDE4F19821882A9
:10F5F000C053D1401FC9E1E0F0E0EC0FFD1FC05D3A
:10F60000DE4F08811981C053D140E00FF11F2083E4
:10F610000F5F1F4FC05DDE4F19830883C053D14079
:10F6200062270A171B0709F005C9D80196E002C92D
:10F63000261709F010C303C0973009F0FBC87724E0
:10F640009981933109F412C19431C8F4963009F4C8
:10F65000D8C0973050F4923009F406C1933009F4C1
:10F660006DC0913009F059C253C0913109F477C08F
:10F67000923108F0BBC0903109F04FC2F5C098310B
:10F6800009F487C0993150F4953109F4EFC09531F0
:10F6900008F4C6C1963109F040C2C2C19A3109F4DA
:10F6A0006CC09A3108F491C09B3109F45BC09D3164
:10F6B00009F033C29D81903359F48F81882311F46E
:10F6C0009EE11CC0813011F091E018C098E916C08D
:10F6D000892F807591F0903539F4E0E0F0E089E011
:10F6E0008093570094910AC0983539F4E3E0F0E034
:10F6F00089E080935700949101C090E01A821B82A8
:10F700008D818C831D829E831F8227E030E009C299
:10F710001A8288E08B8381E48C8386E58D8382E581
:10F720008E8389E48F8383E5888780E589878FE5E9
:10F730008A8782E38B872BE030E0F3C18A818139AD
:10F7400041F0823941F0803911F48FE005C080E04A
:10F7500003C082E001C08AE01A828B8344C0772410
:10F76000739482C08D81882311F48EE12CC0813086
:10F7700011F081E028C088E926C01A82E1E0F0E0BB
:10F7800089E08093570084918B831C8224E030E0D1
:10F79000C8C18B81803589F48C81883039F4E2E0EE
:10F7A000F0E089E08093570084910DC0E0E0F0E044
:10F7B00089E080935700849106C0E3E0F0E089E09F
:10F7C0008093570084911A82DFCF8D81836C99E0FA
:10F7D000E1E0F0E0082E90935700E89507B600FCB2
:10F7E000FDCF1A821B8223E030E09BC180EC8A832C
:10F7F000CE5CDE4F188219821A821B82C253D1401E
:10F800008EC18A8190E0A0E0B0E0582F44273327D2
:10F8100022278B8190E0A0E0B0E0DC0199278827C7
:10F82000282B392B4A2B5B2B8D8190E0A0E0B0E098
:10F83000282B392B4A2B5B2B8C8190E0A0E0B0E089
:10F84000BA2FA92F982F8827282B392B4A2B5B2BCF
:10F85000220F331F441F551FC05EDE4F288339839C
:10F860004A835B83C052D1401A8259C13A81C95C34
:10F87000DE4F3883C753D140CA5CDE4F1882C6536F
:10F88000D1408B81C82EDD24CA5CDE4F488159816E
:10F89000C653D140C42AD52A933109F082C0CE5C28
:10F8A000DE4F88819981AA81BB81C253D1408050AB
:10F8B000904CA340B04030F583E0CE5CDE4FE88052
:10F8C000F9800A811B81C253D140F70100935B008C
:10F8D00080935700E89507B600FCFDCFCE5CDE4F65
:10F8E000088119812A813B81C253D14000501F4FAA
:10F8F0002F4F3F4FCE5CDE4F088319832A833B8313
:10F90000C253D140C05EDE4F488159816A817B81FC
:10F91000C052D140DE011B9631E08C9111962C91A2
:10F9200011971296C75CDE4F2883C953D140C85C3B
:10F93000DE4F1882C853D14090E0C85CDE4FE881AA
:10F94000F981C853D1408E2B9F2B0C01FA01609393
:10F950005B0030935700E89511244E5F5F4F6F4F67
:10F960007F4F0EEFE02E0FEFF02ECE0CDF1CC114F8
:10F97000D10499F685E0C05EDE4F088119812A81A5
:10F980003B81C052D140F80120935B008093570027
:10F99000E89507B600FCFDCF81E180935700E8951C
:10F9A00035C0C05EDE4F88819981AA81BB81C0527B
:10F9B000D140B695A795979587957C018601ABE0D8
:10F9C000AA2EB12CAC0EBD1E0BC0D5016D915D01F0
:10F9D000C7010F947FFE0894E11CF11C01501040F8
:10F9E0000115110591F7A60160E070E0440F551F65
:10F9F000661F771FC05EDE4FE880F9800A811B8199
:10FA0000C052D1404E0D5F1D601F711F1A82C05E33
:10FA1000DE4F488359836A837B83C052D1407FC0C5
:10FA2000FA80C55CDE4FF882CB53D140C65CDE4F16
:10FA30001882CA53D1408B81C82EDD24C65CDE4FAC
:10FA400008811981CA53D140C02AD12A1A828981DA
:10FA5000BE016D5F7F4F843121F59601C05EDE4FA0
:10FA6000E880F9800A811B81C052D1400BBFF701A9
:10FA700087919691DB018C9311969C936E5F7F4FDB
:10FA8000D801C7010296A11DB11DC05EDE4F88835B
:10FA90009983AA83BB83C052D14022503040F1F6F3
:10FAA00036C0C05EDE4F288139814A815B81C052F9
:10FAB000D1400894C108D108760100E010E0089414
:10FAC000C11CD11C0894E11CF11C011D111DE20E8A
:10FAD000F31E041F151F21BDBB27A52F942F832FB5
:10FAE00082BD2F5F3F4F4F4F5F4FF89A80B5DB01CC
:10FAF0008D93BD012E153F054007510761F7C05E8C
:10FB0000DE4F288339834A835B83C052D1409601FC
:10FB10002D5F3F4FFB01108204C080EC8A8322E0FE
:10FB200030E08BE18093C6008091C00086FFFCCF5F
:10FB30008091C00080648093C000C15DDE4FF88179
:10FB4000CF52D140F093C6008091C00086FFFCCF19
:10FB50008091C00080648093C000432F3093C60022
:10FB60008091C00086FFFCCF8091C00080648093AC
:10FB7000C000922F2093C6008091C00086FFFCCF6A
:10FB80008091C00080648093C0008EE08093C600A6
:10FB90008091C00086FFFCCF8091C000806480937C
:10FBA000C00065E1C15DDE4FE880CF52D1406E25D7
:10FBB00069276427FE01319610C090819093C6009A
:10FBC0008091C00086FFFCCF31968091C000806498
:10FBD0008093C0006927215030402115310569F715
:10FBE0006093C6008091C00086FFFCCF8091C0006A
:10FBF00080648093C00085B1805885B9772081F4F6
:10FC0000C15DDE4F0881CF52D1400F5FC15DDE4F35
:10FC10000883CF52D14090E0A0E0B0E00D941AF4F8
:10FC200027982F9880E090E020ED37E0F901319798
:10FC3000F1F7019684369105C9F700008091C00064
:10FC40008D7F8093C00081E180935700E895EE2777
:10FC5000FF270994FFCF90E00D941AF497FB092E2B
:10FC600007260AD077FD04D02ED006D000201AF443
:10FC7000709561957F4F0895F6F7909581959F4F08
:10FC80000895A1E21A2EAA1BBB1BFD010DC0AA1FDD
:10FC9000BB1FEE1FFF1FA217B307E407F50720F0F5
:10FCA000A21BB30BE40BF50B661F771F881F991F70
:10FCB0001A9469F760957095809590959B01AC01B9
:10FCC000BD01CF010895AA1BBB1B51E107C0AA1FAC
:10FCD000BB1FA617B70710F0A61BB70B881F991FED
:10FCE0005A95A9F780959095BC01CD010895F99991
:10FCF000FECF92BD81BDF89A992780B50895262F31
:10FD0000F999FECF1FBA92BD81BD20BD0FB6F89400
:0EFD1000FA9AF99A0FBE01960895F894FFCF63
:040000033000E000E9
:00000001FF
